{
  "contractName": "SimpleRegistry",
  "abi": [
    {
      "anonymous": false,
      "inputs": [
        {
          "indexed": true,
          "internalType": "address",
          "name": "signer",
          "type": "address"
        },
        {
          "indexed": false,
          "internalType": "bytes32",
          "name": "txnHash",
          "type": "bytes32"
        },
        {
          "indexed": false,
          "internalType": "uint256",
          "name": "timestamp",
          "type": "uint256"
        }
      ],
      "name": "TransactionExecuted",
      "type": "event"
    },
    {
      "inputs": [
        {
          "internalType": "string",
          "name": "operation",
          "type": "string"
        },
        {
          "internalType": "string",
          "name": "recordId",
          "type": "string"
        },
        {
          "internalType": "uint256",
          "name": "timestamp",
          "type": "uint256"
        }
      ],
      "name": "validateTransaction",
      "outputs": [
        {
          "internalType": "bool",
          "name": "",
          "type": "bool"
        }
      ],
      "stateMutability": "nonpayable",
      "type": "function"
    },
    {
      "inputs": [
        {
          "internalType": "string",
          "name": "operation",
          "type": "string"
        },
        {
          "internalType": "string",
          "name": "recordId",
          "type": "string"
        },
        {
          "internalType": "uint256",
          "name": "timestamp",
          "type": "uint256"
        }
      ],
      "name": "getSigner",
      "outputs": [
        {
          "internalType": "address",
          "name": "",
          "type": "address"
        }
      ],
      "stateMutability": "view",
      "type": "function"
    }
  ],
  "bytecode": "0x608060405234801561001057600080fd5b5061054e806100206000396000f3fe608060405234801561001057600080fd5b50600436106100365760003560e01c8063201112061461003b578063ad50b0121461006b575b600080fd5b61005560048036038101906100509190610307565b61009b565b60405161006291906103b7565b60405180910390f35b61008560048036038101906100809190610307565b6101ef565b6040516100929190610413565b60405180910390f35b60008086868686866040516020016100b795949392919061048e565b604051602081830303815290604052805190602001209050600073ffffffffffffffffffffffffffffffffffffffff1660008083815260200190815260200160002060009054906101000a900473ffffffffffffffffffffffffffffffffffffffff1673ffffffffffffffffffffffffffffffffffffffff161461013f5760009150506101e6565b3360008083815260200190815260200160002060006101000a81548173ffffffffffffffffffffffffffffffffffffffff021916908373ffffffffffffffffffffffffffffffffffffffff1602179055503373ffffffffffffffffffffffffffffffffffffffff167f43ffef756323155aadbc39fc2dac8743f056e76ceef56c59b6df3b48b89dc92a82856040516101d89291906104ef565b60405180910390a260019150505b95945050505050565b600080868686868660405160200161020b95949392919061048e565b60405160208183030381529060405280519060200120905060008082815260200190815260200160002060009054906101000a900473ffffffffffffffffffffffffffffffffffffffff1691505095945050505050565b600080fd5b600080fd5b600080fd5b600080fd5b600080fd5b60008083601f8401126102915761029061026c565b5b8235905067ffffffffffffffff8111156102ae576102ad610271565b5b6020830191508360018202830111156102ca576102c9610276565b5b9250929050565b6000819050919050565b6102e4816102d1565b81146102ef57600080fd5b50565b600081359050610301816102db565b92915050565b60008060008060006060868803121561032357610322610262565b5b600086013567ffffffffffffffff81111561034157610340610267565b5b61034d8882890161027b565b9550955050602086013567ffffffffffffffff8111156103705761036f610267565b5b61037c8882890161027b565b9350935050604061038f888289016102f2565b9150509295509295909350565b60008115159050919050565b6103b18161039c565b82525050565b60006020820190506103cc60008301846103a8565b92915050565b600073ffffffffffffffffffffffffffffffffffffffff82169050919050565b60006103fd826103d2565b9050919050565b61040d816103f2565b82525050565b60006020820190506104286000830184610404565b92915050565b600081905092915050565b82818337600083830152505050565b6000610454838561042e565b9350610461838584610439565b82840190509392505050565b6000819050919050565b610488610483826102d1565b61046d565b82525050565b600061049b828789610448565b91506104a8828587610448565b91506104b48284610477565b6020820191508190509695505050505050565b6000819050919050565b6104da816104c7565b82525050565b6104e9816102d1565b82525050565b600060408201905061050460008301856104d1565b61051160208301846104e0565b939250505056fea26469706673582212204037f0e53974cca6b9df59320d5a67e23f3d321008442d48a6ca43d7150b0c8964736f6c63430008150033",
  "immutableReferences": {},
  "source": "// SPDX-License-Identifier: MIT\r\npragma solidity ^0.8.21;\r\n\r\ncontract SimpleRegistry {\r\n    mapping(bytes32 => address) private signatureRegistry;\r\n    \r\n    event TransactionExecuted(address indexed signer, bytes32 txnHash, uint256 timestamp);\r\n    \r\n    function validateTransaction(\r\n        string calldata operation, \r\n        string calldata recordId, \r\n        uint256 timestamp\r\n    ) external returns (bool) {\r\n        bytes32 txnHash = keccak256(abi.encodePacked(operation, recordId, timestamp));\r\n        \r\n        if (signatureRegistry[txnHash] != address(0)) {\r\n            return false;\r\n        }\r\n        \r\n        signatureRegistry[txnHash] = msg.sender;\r\n        emit TransactionExecuted(msg.sender, txnHash, timestamp);\r\n        return true;\r\n    }\r\n    \r\n    function getSigner(\r\n        string calldata operation, \r\n        string calldata recordId, \r\n        uint256 timestamp\r\n    ) external view returns (address) {\r\n        bytes32 txnHash = keccak256(abi.encodePacked(operation, recordId, timestamp));\r\n        return signatureRegistry[txnHash];\r\n    }\r\n}\r\n",
  "sourcePath": "C:\\Programming\\FutureProjects\\CRUD-dApp\\blockchain\\contracts\\SimpleRegistry.sol",
  "compiler": {
    "name": "solc",
    "version": "0.8.21+commit.d9974bed.Emscripten.clang"
  },
  "schemaVersion": "3.4.16",
  "updatedAt": "2025-12-11T01:33:26.437Z",
  "devdoc": {
    "kind": "dev",
    "methods": {},
    "version": 1
  },
  "userdoc": {
    "kind": "user",
    "methods": {},
    "version": 1
  }
}